:100000004FC020C368C067C066C065C064C063C01D
:1000100062C061C060C05FC05EC05DC05CC0050101
:100020000906A101050719E029E715002501750159
:1000300095088102950175082565190029658100DB
:10004000C004030904120353007000610072006BC6
:1000500000460075006E0014034100560052002057
:100060000053007400690063006B0012011001006E
:100070000000084F1B0200000101020001090222DA
:1000800000010100801909040000010300000009BB
:1000900021010100012223000705810308000A0055
:1000A00011241FBECFE5D2E0DEBFCDBF10E0A0E639
:1000B000B0E0EEE2F9E002C005900D92A436B1077F
:1000C000D9F710E0A4E6B0E001C01D92A23BB10751
:1000D000E1F777D02AC494CFE0916400F0916500F5
:1000E000309711F0808101C080E01092660080930B
:1000F00067000895FC0186E690E090939700809356
:100100009600808180768032A9F48181813019F453
:10011000E3DF82E00895823041F48AE790E0909333
:1001200097008093960081E008958A3029F48381B6
:1001300080937A0080E0089580E00895DF92EF9246
:10014000FF920F931F93CF93DF93C8E0D0E0FF247B
:1001500080E8E82EDE2CDF0CD1BE61D2082F192FEB
:1001600089E0043318070CF4FD2CE694219791F7ED
:100170008F2D815081BFCF2DD0E0219610C04FD25E
:100180008453994097FF03C0909581959F4F8017A6
:10019000910714F4F1B68C0181B78F5F81BF81B7ED
:1001A00090E0C817D9075CF7F1BE61B780E090E036
:1001B000AED3DF91CF911F910F91FF90EF90DF9021
:1001C00008959F92AF92BF92CF92DF92EF92FF92EB
:1001D0000F931F93CF93DF9380E090E090D38F3FF6
:1001E00009F081BF87B38A6187BBC39A84E190E03D
:1001F000E2EBF1EF3197F1F700C000000197C1F792
:10020000C398C19A84E190E0E2EBF1EF3197F1F706
:1002100000C000000197C1F7C198C49A84E190E042
:10022000E2EBF1EF3197F1F700C000000197C1F761
:10023000C498BC98B89A84E190E0E2EBF1EF319772
:10024000F1F700C000000197C1F7B8982EE088E1EF
:1002500090E00FB6F894A89581BD0FBE21BD8BE04C
:1002600080BF82E987B987E886B9B6D17894C0E0C3
:10027000D0E054E0952EAA24A394BB24BA9407E7B7
:1002800010E047E4C42E33E0D32E23E9E22E92E9B6
:10029000F92EA8957FD08091630084FF26C08091BD
:1002A000640090916500009701F1C130D10521F4FF
:1002B000C398C0E0D0E003C0C39AC1E0D0E00CDF37
:1002C00086E690E062E043D0E0916400F091650042
:1002D000CF010196909365008093640081818F3FE8
:1002E00021F4109265001092640008B602FE0DC061
:1002F00098BE809169008F5F80936900843628F0F2
:1003000010926900A0926800369A80916800882354
:1003100009F4BFCF3699BDCF1092680084B195B172
:10032000B0927900109278001093650000936400F9
:10033000C092770080916000833029F482E080933E
:100340006000F7B8A6CFD0926000E7B8A2CF1F93A5
:10035000162F2091630024FF0BC02091880038E8FD
:10036000232720938800DC01812FE9E8F0E007C013
:100370002AE520936300F7CF9D91919381508823C4
:10038000D9F789E890E0612F46D11C5F1093630094
:100390001F9108950F931F93CF93DF93809198003F
:1003A00018160CF0B0C090919500209194002D3259
:1003B00009F0A1C02AE5209362008B3009F09BC0B0
:1003C000CCE0D0E0C91BD109C456DF4F88818076CC
:1003D00009F081C0109286008981882359F4109217
:1003E000870086E890E0909397008093960090E8CD
:1003F00082E079C0853021F48A818093990071C0B0
:10040000863009F04CC08B81813019F48BE690E086
:100410001DC0823049F48DE790E09093970080935F
:10042000960090EC82E25FC0833019F58A818823C0
:1004300049F481E490E0909397008093960090ECCB
:1004400084E051C0813049F485E490E090939700B6
:100450008093960090EC82E146C0823009F03FC064
:1004600087E590E0909397008093960090EC84E16C
:100470003AC0813249F48FE890E0909397008093DE
:10048000960090EC89E02FC0823249F58EE190E031
:10049000909397008093960090EC83E224C088307C
:1004A00019F48BE990E00AC0893021F48A818093A5
:1004B0009B0017C08A3049F486E890E0909397003B
:1004C0008093960090E881E00EC08B3051F483EC6D
:1004D0008093880006C0CE010DDE90E804C090EC49
:1004E00001C090E880E02F81222339F42E81281763
:1004F00020F4822F02C090E880E090937B008093EC
:100500006100109298008091620084FF47C0809142
:1005100061008F3F09F442C0182F893008F018E0BD
:10052000811B8093610020917B0020FF02C003ECBF
:1005300001C00BE42F5F20937B0080919600909187
:10054000970026FF05C0212FFC01AEE7B0E009C0EF
:10055000DC01212FEEE7F0E00AC034913D933196A3
:1005600021502223D1F705C03D9131932150222300
:10057000D9F7810F911D90939700809396008EE795
:1005800090E0612F48D0812F8C5F183019F09FEFD9
:100590009093610000937D00809362008AE096B39F
:1005A000957019F48150D9F70DC011E0811110E058
:1005B00080917C00811759F0112309F4BFDD10935D
:1005C0007C0005C01092990010929300EECFDF914D
:1005D000CF911F910F91089585B7836085BF8BB729
:1005E00080648BBF83EC809388000895A82FB92F77
:1005F00080E090E041E050EA60956F5F58F42D9103
:1006000038EF82279795879510F0842795273F5FCD
:10061000C8F3F3CF0895EADF8D939D930895A6E084
:1006200088279927AA9569F00197E1F3B099FCCF43
:10063000B09BFECF81E09927A6B3019611F0A5707B
:10064000D9F70895CF93CFB7CF93B09BFECFB09B90
:100650000BC0B09B09C0B09B07C0B09B05C0B09B4E
:1006600003C0B09B01C0D5C00F92DF93C09195002D
:10067000DD27C456DF4F012EB09B03C0DF910F90E2
:10068000E6CF2F930F931F934F932FEF4F6F06B328
:1006900000FB20F95F933F9350E03BE065C016B349
:1006A0000126502950FDC89556B3012700FB25F9B6
:1006B0002F7306B3B1F05027102710FB26F906B2AE
:1006C0002230F0F000C016B3012700FB27F9012605
:1006D000502906B22430E8F54F77206816B30000A1
:1006E000F6CF50274F7D206206B2102F000000C0C9
:1006F00006B300265029102710FB26F906B2E2CFD8
:100700004F7B06B3206400C0DACF01265029157054
:1007100006B269F14E7F2160012F16B328C0002672
:1007200050294D7F06B22260102F29C00126502982
:100730004B7F06B22460012F2DC016B3012650292D
:10074000477F2860000006B22EC04F7E06B32061AE
:1007500030C0422706B3499300265029102706B21D
:100760004FEF10FB20F9297F16B379F2157059F17C
:100770000126502906B2012700FB21F9237F06B389
:1007800071F2002650293150D0F006B2102710FB2C
:1007900022F9277E16B351F201265029012700FBCA
:1007A00006B223F92F7C49F2000006B3102710FB94
:1007B00024F90026502906B22F7939F270CF10E4BF
:1007C0001ABF002719C03B503195C31BD04010E41D
:1007D0001ABF0881033C09F10B34F9F02091930012
:1007E0001981110F1213EDCF4A81441F093651F1BF
:1007F0000D3211F0013E29F700939A003F915F916D
:100800004F911F910F912F91DF910F90CAB7C6FDA5
:100810001CCFCF91CFBFCF91189500919A000023A4
:1008200069F310919800112379F534307AF13093FF
:10083000980000939400109195003BE0311B309399
:10084000950024C0009198000130F4F40AE54F703F
:1008500049F43091620034FD1AC000936200CDE784
:10086000D0E019C03091630034FD11C000936300E3
:10087000C8E8D0E010C0052710E000C021C005275F
:1008800010E0C89508BB14C03AE501C032ED032E54
:10089000C0E0D0E032E017B31560C09A08B317BBD0
:1008A00055E020E84FEF20FF052708BB2795179557
:1008B0001C3F28F700004552B0F720FF0527279579
:1008C00008BB17951C3FB8F629913A9561F70A7F46
:1008D00010919900110F08BBC250D04011F0109335
:1008E000930010E41ABF016017B31A7F402F4A7FAC
:1008F00054E05A95F1F708BB17BB48BB7FCFE1998D
:10090000FECF9FBB8EBBE09A99278DB30895262F0B
:10091000E199FECF1CBA9FBB8EBB2DBB0FB6F894DE
:0E092000E29AE19A0FBE01960895F894FFCF77
:04092E0002FF5A5A10
:00000001FF
